:020000041004E6
:10000000A8880030ED010410F5010410F701041078
:1000100000000000000000000000000000000000E0
:1000200000000000000000000000000009020410B1
:1000300000000000000000000B0204100D0204107C
:100040000F0204100F0204100F0204100F0204101C
:100050000F0204100F0204100F0204100F0204100C
:100060000F0204100F0204100F0204100F020410FC
:100070000F0204100F0204100F0204100F020410EC
:100080000F020410950704100F0204100F02041051
:100090000F0204100F0204100F0204100F020410CC
:1000A0000F0204100F0204100F0204100F020410BC
:1000B0000F0204100F0204100F0204100F020410AC
:1000C0000F0204100F0204100F0204100F0204109C
:1000D0000F0204100F0204100F0204100F0204108C
:1000E0000F0204100F0204100F0204100F0204107C
:1000F0000F0204100F0204100F0204100F0204106C
:100100000F0204100F0204100F0204100F0204105B
:100110000F0204100F0204100F0204100F0204104B
:100120000F0204100F0204100F0204100F0204103B
:100130000F0204100F0204100F0204100F0204102B
:100140000F0204100F0204100F0204100F0204101B
:100150000F0204100F0204100F0204100F0204100B
:100160000F0204100F0204100F0204100F020410FB
:100170000F0204100F0204100F0204100F020410EB
:100180000F0204100F0204100F0204100F020410DB
:100190000F0204100F0204100F0204100F020410CB
:1001A0000F0204100F0204100F0204100F020410BB
:1001B0000F0204100F0204100F0204100F020410AB
:1001C0000F0204100F0204100F0204100F0204109B
:1001D0000F0204100F0204100348854600F034FAA1
:1001E00000480047610B0410A88800300C48804785
:1001F0000C480047FEE77046EFF30881EFF30982F1
:10020000094B98470047FEE7FEE7FEE7FEE7FEE7FB
:10021000ABBE064B7446984720477046F047000037
:10022000450A0410D901041071090410C50904100D
:1002300030B50B46014600202022012409E00D467E
:10024000D5409D4205D31D469540491B2546954006
:1002500040191546521E002DF1DC30BDF0B51FB41B
:100260000646002082B005464024019100901BE024
:10027000019922460F46304600F008FA049A059B81
:10028000801A994110D310461946224600F0EEF923
:10029000361A8F410197224601200021009F00F06D
:1002A000E5F938184D4100902046641E0028DFDC37
:1002B000019B00982946324607B0F0BDF0B50746CD
:1002C0000846584087B0C00F049048000E465900B9
:1002D00040084908BC1A884105D2384631461E46B6
:1002E00017460B4602465800400810434CD0300DCC
:1002F000039040055900400D490D0590401A0290A9
:10030000402872DA18030121000B09050843019007
:1003100004980092002805D001995242002088419B
:1003200000920190029840210A1A0199009800F069
:100330009DF905460C466B4607CB00F0B8F9C0198D
:100340007141039A0E0D0023D71756401A467A4082
:10035000164344D0049A002A2DD0029A012A039A07
:1003600015DC1205C01A914101263605001C7141A9
:10037000D20F059ED2070093019202962A46234689
:1003800000F0B5F907B0F0BD38463146FAE716057A
:10039000224A0F46B218C01AB74101210905001CB4
:1003A0004F4100187F41114618187941E20F104360
:1003B0006D19644113E0E2076D0815436408C20734
:1003C0001443039A01261205C01A91413605001CF8
:1003D0007141CE07400830434908C01851412A46B0
:1003E000234600F077F9CDE7FFE7049801224000AB
:1003F000C117121A00238B4104983146C417381ACA
:10040000A141EEE730B40124E407634030BC55E776
:1004100030B40124E407614030BC4FE70000E0FF46
:10042000F0B51FB488B00B99099800244840099989
:10043000C00F490049080991C0070B990090490075
:1004400049080B9109990898A64608431CD00B99B6
:100450000A98084318D0099801244000420D48002A
:10046000410D099824050003000B204309900B98C7
:100470000003000B20430B9050181C494018002229
:1004800001901446104605E0002001460DB0F0BD75
:10049000032801DA034600E003239C46C11A0AAE92
:1004A0000AE05F0008ADED5B4F00F75B7D4300277E
:1004B000AA187C41491C5B1E6145F2DD410004AB7A
:1004C0005A522104120C0A43240C401C0828DFDB7A
:1004D000019802900099704601910090059B049A42
:1004E0000799069800F003F9D0E700000DFCFFFF24
:1004F000F0B50C465C4085B0E40FE40703944C0073
:100500000026640859009446490802460296224390
:1005100021D062460A431ED06200570D4A000E03E6
:100520002303550D012402462C492405781B1B0B7F
:10053000360B401823432643614600901C46501A50
:10054000B44103D30098401C009002E09218009838
:100550005B41002803DA0020014605B0F0BD002011
:10056000012109050746864611E064461D46141B15
:10057000B54106D36546521BB341744607430C434D
:10058000A646CD0740084908284392185B41054616
:100590000D43EAD11046184313D060461946504027
:1005A0007140084306D06046101AB34106D20122BA
:1005B000002306E000220123DB0702E00122D243F0
:1005C0005310009874460105381C6141029C039D3C
:1005D0000019694100F07EF8BFE70000FD0300004C
:1005E0004A0009030123090B1B0519430A4B10B5E7
:1005F000520D9A4202DA0020014610BD064B3433F8
:100600009A4203DC9A1A00F041F810BD034BD2184D
:1006100000F02CF810BD0000FF030000CDFBFFFF31
:1006200010B5002904DB0124E40740428C41214637
:10063000002B04DB1C460123DB075242A3419942F5
:1006400000D1904210BD0000064C0125064E05E089
:10065000E36807CC2B430C3C98471034B442F7D3E3
:10066000FFF7BEFD001604101016041010B5202A66
:1006700004DB0146203A9140002010BD9140202328
:100680009C1A0346E3401943904010BD10B5202A40
:1006900004DB0846203AD040002110BD0B46D34071
:1006A000D0402024A21A91400843194610BD10B52D
:1006B000202A06DBCB170846203A1041C1170B430E
:1006C00006E00B461341D0402024A21A9140084373
:1006D000194610BD10B5002B08DA0024401C6141FA
:1006E00092185B411A4301D14008400010BDF0B59B
:1006F0001FB482B005460C0003D0084600F066FA2D
:1007000002E000F063FA20300246009021462846BD
:10071000FFF7ACFF049B059A04460F4618431143AC
:10072000084314D0184610431BD0009840210A1AE1
:1007300018460599FFF7AAFF05460E46009A059947
:100740000498FFF793FF084305D0012004E02046FA
:10075000394607B0F0BD0020C11705430E432C43B6
:10076000374300990E986305401A7905E40A002280
:100770000C43FD0A0A3002D500200146E9E70105D5
:10078000101969410C9C0D9D00196941FFF7A2FFEA
:10079000DFE7000080B584B01448006801210842FA
:1007A0000AD0FFE7124800F001FA104901220A605E
:1007B000039000F069F9FFE70C4800680221084245
:1007C0000DD0FFE70B4800F0F1F90B490290084605
:1007D00000F0ECF9054902220A60019003E00348A9
:1007E00001680160FFE704B080BDC0466040005072
:1007F0007B15041092150410F914041070B586B01E
:1008000013460C46054605900491039205988069AD
:10081000049901228A40904303AAD2788A40104367
:10082000059988610598C0690499084A8A409043EF
:10083000039AFF263606B2438A4010430599C861E1
:1008400002930194009506B070BDC04601000100FE
:1008500080B58AB02248099000F0A8F92149089093
:10086000084600F0A3F909990790084600F09EF9A0
:100870001D49012200230690084605911146049265
:100880001A46039300F038F80220059902900846B2
:100890000299039A00F030F8049801040598039A2D
:1008A00001911146019AFFF7A9FF05980499019A51
:1008B000FFF7A4FF112000F0CDF80C483A210160A9
:1008C0000B480168049A114301600168029B1943B7
:1008D0000160084800F06AF900900AB080BDC04687
:1008E000FB150410131504104040005074400050D4
:1008F00054400050CC140410B0B587B013460C46D9
:1009000005460690059104920020039002930194FD
:100910000095FFE703980F2819D8FFE7059803997A
:1009200001228A4010420DD0FFE706980068039923
:10093000490003228A409043049A8A401043069952
:100940000860FFE7FFE70398401C0390E2E707B069
:10095000B0BD0000FFE73948006844F200010842DA
:1009600004D1FFE736480068C0B27047F3E7C046DD
:10097000B0B587B013460C46054606900591049223
:1009800006A80078400600280293019400950DD532
:10099000FFE706A800784007002803D5FFE7049882
:1009A000039002E005980390FFE7FFE7FFE7039855
:1009B000006801210843002801D0FFE7F7E7069807
:1009C00007B0B0BDB0B586B013460C4605460590DD
:1009D00004910392002002930194009506B0B0BDEB
:1009E00080B582B0014601900198009100F002F8B4
:1009F00002B080BD82B0014601900091FFE70F4830
:100A000000680121C905084201D0FFE7F7E7019816
:100A10000B49086001A800780A280DD1FFE7FFE71D
:100A2000064800680121C905084201D0FFE7F7E741
:100A300003480D210160FFE702B07047180007501E
:100A40000000075001480249086070470000041088
:100A500008ED00E082B00146019001980028009165
:100A60000CDBFFE701981F2102460A40012191405B
:100A7000C008034A1040034A8150FFE702B07047A4
:100A8000FCFFFF1F00E100E080B58CB0234800F0C0
:100A90008DF823490990084600F088F8214908900C
:100AA000084600F083F820490790084600F07EF8D9
:100AB0001E490690084600F03BF80B90FFE71B48E4
:100AC00000F000FD0A9000210A28059106D0FFE7FA
:100AD0000A98401C411E88410590FFE70598C00711
:100AE000002801D0FFE7EAE70B98312807D1FFE79C
:100AF00000F044F8049000F047F803900BE00B98E6
:100B0000322807D1FFE700F045F8029000F048F8DE
:100B10000190FFE7FFE70CB080BDC0464E15041002
:100B2000D11504104F150410A915041000800030D1
:100B300080B582B0014601900091FFF70BFF02B033
:100B400080BD80B584B00A460346039002910398A5
:100B500001920093FFF744FF039804B080BD0000AA
:100B600080B582B000200190034800F01FF800908B
:100B7000FFF76EFEFFE7FEE72F15041003B40148F0
:100B8000019001BD19F0030003B40148019001BDBB
:100B900009F0030003B40148019001BD11F0030006
:100BA00003B40148019001BD01F003000FB410B57A
:100BB00003A9044B044A029800F0E8F810BC08BCF2
:100BC00004B01847430B0410548000302021020C5D
:100BD00001D010211046020A01D01046083902093E
:100BE00001D01046091F820801D01046891E420814
:100BF00001D0881E7047081A704702E008C8121F0B
:100C000008C1002AFAD170477047002001E001C1F5
:100C1000121F002AFBD17047F0B51FB486B00998A7
:100C2000089A030D0021024314D05148514A181864
:100C3000504305141198012810981AD0281A401C06
:100C400000264D4F4D49009601910490002812DA7C
:100C5000444211E01198012449A3012801D11098C0
:100C6000C1430698119A84600360C26041600BB072
:100C7000F0BD4042E4E70446210500203F4A001C45
:100C800051410391029012E0E00707D032463B4603
:100C900001990098FFF7C4FB0191009032463B4652
:100CA00010461946FFF7BCFB06460F466410002CA1
:100CB000EAD10498039B0028029A0999089806DA59
:100CC000FFF7AEFB019B009AFFF7AAFB05E0FFF7D9
:100CD0000FFC019B009AFFF70BFC04460E46002216
:100CE000284BFFF79DFC03D80020C043014607E0D6
:100CF0000022254B20463146FFF7E0FAFFF770FC53
:100D0000102409E0002C0ADB0A220023FFF7A6FAD0
:100D1000079B30321A55641E02460A43F2D1112253
:100D2000641C079B121B1C19119B012B03D0012370
:100D300008430ED10AE0084304D01120109000208F
:100D4000119077E71098151A6D1E0BE010988242EB
:100D500002DD00236D1C03E0824201DA00236D1ED8
:100D6000002BEED0069811998260C16030C07EE7FA
:100D700001FCFFFF104D0000000014400000F03F98
:100D8000300000000000F0430000E03FFFB597B0E6
:100D90000646002518E2252877D100242746FD497C
:100DA000049400E00443761C32780120203A9040FD
:100DB0000842F7D130782A280ED002223078014636
:100DC0003039092916D804990A2359433039401873
:100DD0001443761C0490F1E7189802C80491189007
:100DE000002904DA01204003044348420490022011
:100DF0000443761C30782E2814D1042004437078E4
:100E0000761C2A2809D11898761C80C8189009E009
:100E10000A214F43303FC719761C307801463039DC
:100E20000929F5D930786C2810D006DC4C281AD066
:100E300068280ED06A2817D104E0742813D07A28C5
:100E400012D110E00120400504430CE00121090506
:100E500001E0032109050C437178814203D101208F
:100E600000052418761C761C3078119066280BD06B
:100E700013DC58287DD009DC00287BD04528F6D02B
:100E80004628F4D047281AD1A5E118E0632835D0C8
:100E9000642870D0652812D19DE170286CD008DCE0
:100EA0006728F1D069287BD06E280DD06F2806D135
:100EB000BAE073282ED0752871D0782859D01A9AA4
:100EC000199990476D1C7EE16002400F022809D0FD
:100ED00003280DD00428189801680DD00D60001D5E
:100EE000189070E11898EA1701680D604A60F6E7FB
:100EF000189801680D80F2E70D70F0E718986A46BF
:100F000001781172001D18900020507202A8009004
:100F1000012005E0189802C8189000200091C043F5
:100F200061070DD5002101E00199491C0191B942E9
:100F300012DA8142F8DB009A515C0029F4D10BE00F
:100F4000002101E00199491C01918142FADB019ADB
:100F50000099895C0029F5D1019904981A9B471AD8
:100F600021463846199A00F097FA01994019451818
:100F70000BE04FE02CE113E04EE000980099007880
:100F8000491C00911A9A199990470198401E0190A6
:100F9000401CF2D1214638461A9B199A10E137E0DD
:100FA0000A200021009001916002410F022907D020
:100FB000189A01CA1892C2179446032908D00AE069
:100FC0001898C01DC108C90005C91891944607E0CA
:100FD00000B2C2179446042902D140B2C1178C4610
:100FE00000226146944506DA0A46002140429141BA
:100FF0008C462D2102E0210504D52B216A46117370
:10100000012103E0E10701D02021F7E7029155E03B
:101010000A200AE0102008E010200090002104209F
:1010200004430191082703E008200021019100906A
:101030006002410F022907D0189A01CA18920022B3
:101040009446032908D008E01898C01DC108C900BB
:1010500005C91891944603E080B2042900D1C0B2BA
:1010600000210291210729D51199702906D0009AF3
:101070001021019B4A401A4305D00EE040216A46E8
:101080001173012108E06146014306D030216A4610
:1010900011731199517302210291009A0821019B49
:1010A0004A401A430AD16146014301D1610705D57F
:1010B00030216A46117301217F1E0291119958292E
:1010C00004D035A10E910DA90D910DE037A1F9E7DE
:1010D0006146019B009AFFF7C1F80E9B8C469B5C12
:1010E0000D9A521E0D92137061460143F0D10D9876
:1010F00005A9081A20300190600703D501200004DB
:10110000844300E001270198874201DD381A00E09E
:101110000020019900904118029809180498401A7B
:101120000490E00306D421461A9B199A049800F013
:10113000B3F94519002706E003A81A9AC05D19996A
:1011400090476D1C7F1C02988742F5DBE0030CD5AD
:1011500021461A9B199A049800F09EF9451904E05B
:101160001A9A3020199990476D1C0099481E0090DA
:101170000029F5DC08E00D980D990078491C0D91C7
:101180001A9A199990476D1C0199481E01900029DF
:10119000F1DC63E109280100303132333435363770
:1011A00038396162636465660000000030313233B3
:1011B0003435363738394142434445460000000053
:1011C00000F05AF94519761C3078002800D0E2E585
:1011D00028461BB0F0BD600700D406271898C01D34
:1011E000C108C90048680A680831C30FDB071891B5
:1011F000190001D09CA108E0210501D59BA104E0C4
:10120000E10701D09AA100E09AA1430011985B0880
:10121000109165280CD006DC452809D046281DD041
:10122000472841D141E0662818D067283CD13CE0EE
:101230000021112F01DB112000E0781C01910090AA
:1012400008A911A8FFF7E8FC139905910021119A4C
:1012500015927F1C12980197009150E00120C00761
:1012600003900120019008A9009711A8FFF7D4FC72
:10127000139A149905920022119B009212981593CB
:10128000059A0192002901D0104602E0791C40180D
:101290000190381A01D5019804E04042401E0090A8
:1012A000781C0190C01B029043E0012F00DA012757
:1012B0000021112F01DD112000E03846019100903E
:1012C00008A911A8FFF7A8FC13990591119A00210C
:1012D000129815920091019721070CD40599B942F3
:1012E00001DB019900E00191012904DD159A491EF5
:1012F000515C302906D0B84201DA011D05DA01211E
:10130000029115E00199491EEDE7002805DC0099DE
:10131000411800910199091A03E0019A411C914278
:1013200000DD01910099401A401C02900120C00785
:101330000390200706D402990198814202DB002025
:10134000C043029000206946C87707AF0121039887
:101350000337C907884224D0022011902B20129015
:10136000039800280CDA404203902D20129007E0E9
:101370000A210398FEF75CFF30317F1E039039701D
:101380001199481E11900029F2DC03980028EFD132
:10139000791E129808703078202108404530BF1E11
:1013A000387006A8C01BC01D039010980078002854
:1013B00000D00120019941180298C017091803981C
:1013C00009180498401A401E0490E00306D42146F0
:1013D0001A9B199A049800F05FF845191098007844
:1013E000002803D01A9A199990476D1CE00324D560
:1013F00021461A9B199A049800F04EF845191CE0F2
:101400000098002807DB00990598884203DD1598AD
:10141000405C199901E0199930201A9A9047009878
:101420006D1C401C00900298401E0290002804D1C0
:101430001A9A2E20199990476D1C0199481E019007
:101440000029DDDC05E038781A9A7F1C199990474D
:101450006D1C0399481E03900029F4DC21461A9B59
:10146000199A0498ACE600002D0000002B00000043
:101470002000000000000000F8B5044600251E46CC
:101480001746880404D405E039462020B0476D1C77
:10149000641EF9D52846F8BDFFB50446002581B085
:1014A0001E46C80301D5302700E02027880404D554
:1014B00005E038460399B0476D1C641EF9D52846EF
:1014C00005B0F0BD10B5FFF733FB10BD47504930F4
:1014D00020494E5445525255505420494E495420AB
:1014E0005355434345535346554C4C5920434F4D58
:1014F000504C45544544210A004E6F742075736565
:1015000064202D2067657420637265617469766557
:10151000210A004750493020494E544552525550F7
:101520005420494E4954202E2E2E2E2E2E0A004E87
:101530006F6E2D73656375726520636F64652069D6
:10154000732072756E6E696E672E2E2E0A000A5F0A
:101550005F5F5F5F5F5F5F5F5F5F5F5F5F5F5F5F9B
:101560005F5F5F5F5F5F5F5F5F5F5F5F5F5F5F5F8B
:101570005F5F5F5F5F5F5F5F5F0A00427574746FFC
:101580006E2030202D5357322D207075736865649E
:101590000A00427574746F6E2031202D5357332D1D
:1015A000207075736865640A0053656C6563743AEE
:1015B000200A09090931202D20456E637279707463
:1015C0000A09090932202D20446563727970740A72
:1015D000007C20202054727573747A6F6E652041F0
:1015E00045532043727970746F6772617068792017
:1015F00044656D6F2020202020207C0A0000000020
:101600001016041000800030A80800000A0C041016
:04000005100401D909
:00000001FF
