:020000040000FA
:10000000080E0020ED010000F5010000F7010000DE
:1000100000000000000000000000000000000000E0
:1000200000000000000000000000000009020000C5
:1000300000000000000000000B0200000D020000A4
:100040000F0200000F0200000F0200000F0200006C
:100050000F0200000F0200000F0200000F0200005C
:100060000F0200000F0200000F0200000F0200004C
:100070000F0200000F0200000F0200000F0200003C
:100080000F0200000F0200000F0200000F0200002C
:100090000F0200000F0200000F0200000F0200001C
:1000A0000F0200000F0200000F0200000F0200000C
:1000B0000F0200000F0200000F0200000F020000FC
:1000C0000F0200000F0200000F0200000F020000EC
:1000D0000F0200000F0200000F0200000F020000DC
:1000E0000F0200000F0200000F0200000F020000CC
:1000F0000F0200000F0200000F0200000F020000BC
:100100000F0200000F0200000F0200000F020000AB
:100110000F0200000F0200000F0200000F0200009B
:100120000F0200000F0200000F0200000F0200008B
:100130000F0200000F0200000F0200000F0200007B
:100140000F0200000F0200000F0200000F0200006B
:100150000F0200000F0200000F020000E51A00006D
:100160000F0200000F0200000F0200000F0200004B
:100170000F0200000F0200000F0200000F0200003B
:100180000F0200000F0200000F0200000F0200002B
:100190000F0200000F0200000F0200000F0200001B
:1001A0000F0200000F0200000F0200000F0200000B
:1001B0000F0200000F0200000F0200000F020000FB
:1001C0000F0200000F0200000F0200000F020000EB
:1001D0000F0200000F0200000348854600F00AFEEF
:1001E00000480047E1240000080E00200C4880472A
:1001F0000C480047FEE77046EFF30881EFF30982F1
:10020000094B98470047FEE7FEE7FEE7FEE7FEE7FB
:10021000ABBE064B7446984720477046F047000037
:100220004D1F0000D90100006D1C0000611D000081
:10023000421C0178401C0029FBD1801A7047000045
:100240000FB400B58DB009900B9010A9002000915B
:10025000C0430A9000200C9006480690064807907C
:100260006A4609A80F9900F0CDFB0DB008BC04B098
:1002700018470000250A0000450A000030B50B466B
:10028000014600202022012409E00D46D5409D4270
:1002900005D31D469540491B2546954040191546F6
:1002A000521E002DF1DC30BDF0B51FB40646002013
:1002B00082B005464024019100901BE0019922463E
:1002C0000F46304600F0F5FD049A059B801A9941CF
:1002D00010D310461946224600F0DBFD361A8F4136
:1002E0000197224601200021009F00F0D2FD38181E
:1002F0004D4100902046641E0028DFDC019B0098E1
:100300002946324607B0F0BDFFB50025ED4385B064
:100310000020009001909F685E681C46A1696D1CDA
:10032000069888470290216A88470028F6D10298EB
:10033000401C0CD0032040028643002F19DD7006BC
:1003400014D502982B2809D02D280FD103E00020C6
:10035000C04309B0F0BD012080020643A1696D1CB5
:10036000069888477F1E0290002F02DD02983028F1
:1003700003D00798002828D024E00120400206433B
:10038000A1696D1C7F1E069888470290002F03DD2F
:10039000782805D0582803D00798002810D011E0FD
:1003A0000798002801D010280CD101204002864374
:1003B000A1696D1C7F1E069888470290102000E0FE
:1003C00008200790C017039016E00A20F9E70120E3
:1003D000400206437F1E039B079A0199009800F094
:1003E0001BFD029AD3178018594101910090A16911
:1003F0006D1C069888470290002F06DD0799029829
:1004000000F082FD02900028E1DAE1690698884751
:10041000B00502D40120C0439BE7F00710D170065D
:1004200010D5700505D50098019B002241429A41E4
:1004300001E0019A00992068031D2360006806C04E
:10044000284686E72068011D21600068019A00990E
:10045000F5E7FFB50027FF4383B000205C680190FB
:100460009E681D46A9697F1C049888470090296AE8
:1004700088470028F6D10098401C0CD00320400289
:100480008443002E19DD600614D500982B2809D06E
:100490002D280FD103E00020C04307B0F0BD01209C
:1004A00080020443A9697F1C04988847761E009047
:1004B000002E02DD0098302803D00598002825D0B2
:1004C00035E0012040020443A969761E7F1C049890
:1004D00088470090002E03DD782805D0582803D0E7
:1004E0000598002810D022E00598002801D0102897
:1004F0001DD1012040028443A969761E7F1C049807
:1005000088470090102002E0082000E00A200590B3
:100510000DE0012149020C43059A0199761E5143D1
:1005200008180190A9697F1C049888470090002E44
:1005300005DD0599009800F0E7FC0028E9DAE96993
:1005400004988847A00502D40120C043A5E7E0072E
:1005500022D1600611D56005019800D54042296876
:100560000A1D2A600968220501D5087014E02207D7
:1005700001D5088010E008600EE02868011D2960A0
:100580000068210502D50199017005E02107019954
:1005900001D5018000E0016038467EE7FFB500200C
:1005A00083B00090506801909169144600269768C6
:1005B0000498884705460C990698084305D009E039
:1005C000A169761C049888470546216A2846884711
:1005D0000028F5D1681C03D00198C00704D017E0AB
:1005E0000020C04307B0F0BD2068011D21600068F5
:1005F00000900DE00198C00704D1009805700098A4
:10060000401C0090A169761C7F1E0498884705460F
:10061000002F1CDD681C1AD0069800280FD0E817A0
:10062000C00E401941118A00069940095118400135
:100630002A1A0968012090400142DBD107E00C989A
:100640000028D7D1216A284688470028D2D0E169FE
:10065000049888470C98002807D1002E05DD0198E2
:10066000C00702D1009800210170A068B84204DDE3
:100670000C98002804D0002F02D00120C043B1E71D
:100680003046AFE7FFB5087889B01546FF2805D09A
:10069000491C2D2804D00022002407E000240BE090
:1006A0000122F9E70A235C430419491C0878FF2852
:1006B000F8D1002A00D06442002004902A78014634
:1006C0002D2A01D02B2A0FD16D1C2D2A02D00022F9
:1006D000049209E00122FBE700260A2233466D1C42
:1006E00000F09AFB381871412F78FF2FF4D10C9A43
:1006F000A218069202460A4304D0FF23069A9133B9
:10070000DA4205DA002109980A4606C00DB0F0BDAC
:100710000024B74AB54D2646079200F001FE02902C
:1007200006980391002801DA474200E007463905A0
:100730000020AF4A001C51410191009012E0F807DF
:1007400007D022462B463046079900F03FFA06466E
:10075000079122462B461046194600F037FA044608
:100760000D467F10002FEAD10698019B0028009AC1
:100770000399029806DA00F091FA3246079B00F0DE
:100780008DFA05E000F022FA3246079B00F01EFACF
:10079000049A002A02D00122D2075140099A03C2CA
:1007A000B4E7FFB591B0002009900025ED432E205D
:1007B0009E685C681F460190B9696D1C1298884755
:1007C0000090396A88470028F6D10098401C0AD06A
:1007D0000D20C0018443002E12DD00982B2809D083
:1007E0002D280DD103E00020C04315B0F0BD01203D
:1007F00080020443B9696D1C12988847761E0090E8
:1008000003A9600501D52D2000E02B206A46107356
:10081000491C0CA80F9102900AE0B9696D1C12984E
:10082000884700900120400204431398761E05601B
:10083000002E02DD00983028EFD001990098884200
:1008400045D18020044308E00998401E099001200A
:10085000400204431399681C0860B9696D1C761E38
:100860001298884700903028EED030E001998842F5
:1008700005D1200603D480200443761E1DE0009895
:1008800001F066FF002825D0012149020C430098A1
:1008900007AA0F9903323038761E914208D20870A9
:1008A0000F98401C0F90200607D50998401E03E0C2
:1008B000200602D40998401C0990A00502D513997E
:1008C000681C0860B9696D1C129888470090002E5A
:1008D000CCDC59E0002E57DD0098652801D0452872
:1008E00052D1A00550D5032000028443B9696D1C84
:1008F000761E129888470090002E0CDD2B2804D01D
:100900002D2808D1FF2001300443B9696D1C1298CD
:100910008847761E0090E00501D52D2100E02B21AF
:10092000029801700298401C0290019025E001207D
:10093000400204430EA902980131761E88420ED26D
:100940000098029930380006000E087003D1029911
:10095000019881420AD90298401C029006E0E00505
:1009600001D5244801E0234840420990B9696D1C33
:1009700012988847009013980560002E04DD0098B7
:1009800001F0E6FE0028D2D1F969129888470F9944
:10099000FF200870029903AA087000200A900B90AB
:1009A0000CA90AA8099BFFF76DFEA00502D401203F
:1009B000C0431AE72420044209D0E00713D1386865
:1009C0000B9A0A99031D3B60006806C00BE00B9967
:1009D0000A9800F0B3FC0146E00704D13868021D14
:1009E0003A60006801602846FFE6000000001440FD
:1009F0000000F03FF1D8FFFF026813785118016042
:100A00001846704710B5D16004495161044911621C
:100A100000211161114600F087FA10BDF9090000AC
:100A2000FB0E00004268002A08D001680B78491CC0
:100A3000002B03D0521E06C0184670470121C1602A
:100A4000881E70474268002A0BD0C3680168002BDB
:100A500007D183688B4204D0491E521C06C0002077
:100A600070470020C0437047F0B50746084658401D
:100A700087B0C00F049048000E465900400849084E
:100A8000BC1A884105D2384631461E4617460B46E9
:100A900002465800400810434CD0300D03904005EA
:100AA0005900400D490D0590401A0290402872DA15
:100AB00018030121000B09050843019004980092D6
:100AC000002805D0019952420020884100920190EF
:100AD000029840210A1A0199009800F0DAF90546B7
:100AE0000C466B4607CB00F0F5F9C0197141039A2B
:100AF0000E0D0023D71756401A467A40164344D0AD
:100B0000049A002A2DD0029A012A039A15DC1205B4
:100B1000C01A914101263605001C7141D20F059E75
:100B2000D2070093019202962A46234600F0A5FBC5
:100B300007B0F0BD38463146FAE71605224A0F469F
:100B4000B218C01AB74101210905001C4F41001815
:100B50007F41114618187941E20F10436D19644125
:100B600013E0E2076D0815436408C2071443039AB3
:100B700001261205C01A91413605001C7141CE07AD
:100B8000400830434908C01851412A46234600F026
:100B900067FBCDE7FFE7049801224000C117121A56
:100BA00000238B4104983146C417381AA141EEE75F
:100BB00030B40124E407634030BC55E730B401246D
:100BC000E407614030BC4FE70000E0FFF0B51FB420
:100BD00088B00B990998002448400999C00F490032
:100BE00049080991C0070B990090490049080B91E9
:100BF00009990898A64608431CD00B990A980843FF
:100C000018D0099801244000420D4800410D099870
:100C100024050003000B204309900B980003000BF0
:100C200020430B9050181C49401800220190144694
:100C3000104605E0002001460DB0F0BD032801DAA2
:100C4000034600E003239C46C11A0AAE0AE05F0097
:100C500008ADED5B4F00F75B7D430027AA187C4190
:100C6000491C5B1E6145F2DD410004AB5A52210470
:100C7000120C0A43240C401C0828DFDB0198029068
:100C80000099704601910090059B049A0799069877
:100C900000F0F3FAD0E700000DFCFFFFF0B50C46C2
:100CA0005C4085B0E40FE40703944C000026640820
:100CB00059009446490802460296224321D06246D2
:100CC0000A431ED06200570D4A000E032303550D40
:100CD000012402462C492405781B1B0B360B4018B7
:100CE00023432643614600901C46501AB44103D367
:100CF0000098401C009002E0921800985B41002888
:100D000003DA0020014605B0F0BD002001210905ED
:100D10000746864611E064461D46141BB54106D3BE
:100D20006546521BB341744607430C43A646CD07A4
:100D300040084908284392185B4105460D43EAD113
:100D40001046184313D0604619465040714008437E
:100D500006D06046101AB34106D20122002306E0F5
:100D600000220123DB0702E00122D2435310009846
:100D700074460105381C6141029C039D00196941BC
:100D800000F06EFABFE70000FD0300004A0009030F
:100D90000123090B1B0519430A4B10B5520D9A424A
:100DA00002DA0020014610BD064B34339A4203DCC0
:100DB0009A1A00F07EF810BD034BD21800F069F8C3
:100DC00010BD0000FF030000CDFBFFFF10B50029A0
:100DD00004DB0124E40740428C412146002B04DB64
:100DE0001C460123DB075242A341994200D19042A5
:100DF00010BD0000064C0125064E05E0E36807CC57
:100E00002B430C3C98471034B442F7D3FFF7E8F972
:100E10001432000034320000F0B51FB486B0002058
:100E20000090019002900698069980B2049007986D
:100E3000090C02040014114307900027089D09982B
:100E400006913E463C4603900398A9B20204000C6A
:100E5000039004982D0C154348430021224600F0CE
:100E600018F8C719714110340E46402CECDB384697
:100E7000029A00F00EF8009A019B801800905941E8
:100E800002980191103002904028CCDB00980BB002
:100E9000F0BD10B5202A04DB0146203A9140002025
:100EA00010BD914020239C1A0346E3401943904013
:100EB00010BD10B5202A04DB0846203AD04000219E
:100EC00010BD0B46D340D0402024A21A91400843C5
:100ED000194610BD10B5202A06DBCB170846203A6C
:100EE0001041C1170B4306E00B461341D0402024AC
:100EF000A21A91400843194610BD10B50F21C0B287
:100F0000490200F037FA10BD3A2800D230382023C9
:100F100002469A43412A01D310463738884201D30A
:100F20000020C04370470000F3B58DB000200A9048
:100F300001200B90002608460C300C46099062698F
:100F4000012109989047051E2ED0252D2DD0216A0C
:100F50008847002818D06269012109989047216AC2
:100F600088470028F7D1411E62690998904700E040
:100F7000761CA1690D988847216A88470028F7D117
:100F8000E1690D988847DAE7A1690D988847074617
:100F9000A84201D1761CD2E7E1690D9888477F1CF1
:100FA00002D10A98002877D049E1002762693D46BE
:100FB0003946099890472A280CD16269012109987D
:100FC0009047012506E00A214F433F18303FEBD4FC
:100FD0001020054362690121099890470146303984
:100FE0000A2903D29B498F42DEDCECE7E90600D4F4
:100FF000994F6C280AD04C2810D0682824D06A2831
:101000002ED074280CD07A280AD00DE06269012114
:10101000099890476C2823D004211CE02020054328
:101020006269012109989047A760656065284FD0E3
:1010300026DC582839D01ADC452849D012DC25286E
:1010400034D04128B0D143E062690121099890472A
:10105000682802D008210D43E6E70120C002DEE740
:101060000220DCE7462833D047282CD130E05B282B
:1010700070D061282CD063286CD0642823D161E023
:101080006F284FD009DC662822D0672820D0692835
:1010900026D06E2817D12EE0CDE070284DD07328D1
:1010A0006FD075284ED078280DD154E0A1690D98E5
:1010B00088470546252800D16CE7E1690D988847E7
:1010C0006D1C00D16DE7BAE00A224CE00A2252E022
:1010D000012023466A46C0430D99FFF762FBA3E057
:1010E0002846402108436060A807234601D5002216
:1010F00039E000223FE0E80700D020E72068011D2A
:1011000021600068290501D5067018E7290701D577
:10111000068014E7A90703D5F117066041600EE7C2
:1011200006600CE72846402108436060A807234674
:1011300001D5082217E008221DE04849284608404A
:10114000606016E02846402108436060A8072346F7
:10115000BCD5B9E715E02846402108436060A807E0
:1011600007D5234610220120C0430D99FFF7CCF884
:101170005AE0234610220120C0430D99FFF769F978
:1011800052E000210C910B460091632802D05B28AD
:1011900007D043E0E80601D40120A06001200090C0
:1011A0003CE062690121099890475E2805D1012041
:1011B0000C9001466269099890472169002906D17F
:1011C0000B4601AA8F00491CD3510829FADB0028DD
:1011D00035D0216900290ED1C117C90E09184A114D
:1011E000930001AA9A1849094901411A012013687C
:1011F00088400343136062690121099890475D2884
:10120000E5D10C98002808D0002001AB81005A5885
:10121000401CD2435A500828F8DB01AB012022467B
:10122000C0430D99FFF7BAF900280ADA401C06D12D
:101230000B98002803D00020C0430FB0F0BD0A98DF
:10124000FBE7E90702D10A99491C0A9136180020E8
:101250000B9074E6CCCCCC0CFFFFFF7FF1F7FFFFC7
:1012600010B5002B08DA0024401C614192185B4144
:101270001A4301D14008400010BDF0B51FB482B040
:1012800005460C0003D0084601F082F902E001F0A7
:101290007FF920300246009021462846FFF7F9FDED
:1012A000049B059A04460F4618431143084314D083
:1012B000184610431BD0009840210A1A1846059979
:1012C000FFF7F7FD05460E46009A05990498FFF7CB
:1012D000E0FD084305D0012004E02046394607B070
:1012E000F0BD0020C11705430E432C43374300993E
:1012F0000E986305401A7905E40A00220C43FD0AA2
:101300000A3002D500200146E9E7010510196941BC
:101310000C9C0D9D00196941FFF7A2FFDFE700005B
:101320000EB5054A02920022009213460192FFF781
:10133000A4FF03B000BD000033040000CB0FDB07A7
:10134000490010B5490802460A4307D00A0D072490
:101350000903E401090B121B002A01DC002010BD67
:10136000C900440F0C43C100E018D205801800F0FA
:1013700013F810BD7F2801D9002207E0054B420871
:101380009A5CC00700D112091207120F0120904089
:1013900008407047D02E0000002904DA401C4900A4
:1013A00001D140084000704770B40024050C05D1FD
:1013B0001024000402D1002921D01124050E01D1EE
:1013C00000020834050F01D10001241D850F01D151
:1013D0008000A41C002801DB4000641C002908D008
:1013E00020252E1B0D46F540A14000D001212943A8
:1013F000084301061B1B000ADB1D02D5002070BC40
:101400007047DB05181880180029F8DA401C4900DD
:10141000F5D170BC4008400070470000F0B58BB0BB
:10142000119C109D1E46174606900846059006988A
:10143000049006980A900991089207930999090661
:10144000089A12041143079A12021143109A92004B
:101450001143119A920511430A9A40F20013D15098
:101460000A99C958099A92005D4B995003950296C2
:10147000019700940BB0F0BDF0B58BB0109C1D46E9
:1014800016460F460590049005980A900991089217
:1014900007930A99099A3C2318465043081840F2CA
:1014A0004011401806900898069908600A98099912
:1014B0001A464A43801840F2441140180690079893
:1014C000069908600A9809994B43C01840F24811E0
:1014D00040180690109806990860039502960197A7
:1014E00000940BB0F0BDB0B588B013460C4605466D
:1014F000079006910592079806993C224A43801866
:1015000040F230114018039000200490029301949F
:101510000095FFE7049803280ED8FFE70598049983
:1015200089004058039908600398001D0390FFE765
:101530000498401C0490EDE708B0B0BDF0B58BB046
:101540001C4615460E4607460A90099108920793D5
:101550000A9809993C224A43801840F21011401819
:10156000049007984000001D059000200690039409
:10157000029501960097FFE70698059988420ED2DA
:10158000FFE7089806998900405804990860049874
:10159000001D0490FFE70698401C0690ECE70BB096
:1015A000F0BD000070B586B013460C4605460590A8
:1015B000049103920498800009490858059940F263
:1015C000001288500398400105998E580643012067
:1015D00006438E5002930194009506B070BDC0463C
:1015E000F004002070B588B013460C4605460790FD
:1015F0000691059240F20C00C2F2000000680799C3
:10160000069A059E0490084611463246049E0393AE
:1016100002940195B04708B070BD10B586B00A4677
:1016200003460590049140F21000C2F200000068E9
:101630000599049C039008462146039C029201935D
:10164000A04706B010BD0000B0B592B0574807A93A
:101650003CC83CC13CC83CC1554801905548006855
:1016600002210840009054480068069006A880783F
:101670000521084204D0FFE751480021016039E00C
:1016800006A880780007002803D5FFE76748059083
:1016900002E066480590FFE706A8807880070028EA
:1016A00004D5FFE705984649086022E006984CF209
:1016B00000010840800B01A90143087802900698B8
:1016C0003E490840801C0490069843F6006108409B
:1016D000400A401C03900598800804994843400044
:1016E0000399029A4A43B0FBF2F080003449086043
:1016F000FFE7FFE7B5480068072108401090109801
:10170000012823D1FFE70098002806D1FFE72948E8
:101710000168022211430160FFE72A480068802126
:10172000084204D0FFE747F60050119003E048F26A
:1017300000001190FFE70098002806D1FFE71D4840
:101740000168022291430160FFE70EE01098022831
:1017500004D1FFE71A480068119005E01098800056
:1017600007A908581190FFE7FFE75C4800680F21C0
:101770000840401C0F9011980F99B0FBF1F0AA4956
:1017800008600868104A8018104AB0FBF2F0104A4E
:101790001060086812B0B0BC02BC8E46714672463A
:1017A0007346F4468EF300887447C046502F0000FD
:1017B000010202040802004040020040FF01000054
:1017C000040000200011044020A1070040420F0047
:1017D0000000002080B500F09DFB9348006880BCAD
:1017E00002BC8E46714672467346F4468EF30088FC
:1017F0007447C04682B0002001901B480068012158
:10180000084000900098002803D0FFE7B3480190FB
:1018100002E000200190FFE7019802B07146724695
:101820007346F4468EF300887447C046001BB70029
:1018300082B0002001900C4800680221084000900E
:101840000098002804D0FFE748F20000019002E071
:1018500000200190FFE7019802B07146724673467E
:10186000F4468EF3008874470002004088B00146B9
:1018700007900020069005901748C268049282687D
:10188000039242680292006801900798800A00065D
:101890000028009116D0FFE707A840880C210840D7
:1018A00001A908580D494018059005980068079946
:1018B0008A0AD2B249091F2319408A401040C84001
:1018C0000690FFE7069808B0714672467346F446E4
:1018D0008EF300887447C046402F0000200200406D
:1018E00088B0014607900020069005903248C268F3
:1018F00004928268039242680292006801900798FD
:101900002E4A9042009106D1FFE73148006801213C
:101910000840069046E007982949884207D1FFE72A
:101920002B480068022108404008069039E00798DB
:101930002449884208D1FFE72548006840F2001199
:101940000840000A06902BE007981F49884208D1FA
:10195000FFE71F48006840F200210840400A069057
:101960001DE00798400E4007002817D0FFE70798B2
:10197000800E0C21084001A9085814494018059010
:101980000598006807994A0E07231A40090D1F237E
:1019900019408A401040C8400690FFE7FFE7FFE784
:1019A000FFE7FFE7069808B0714672467346F446B3
:1019B0008EF300887447C046302F0000100000806E
:1019C000110000801200008013000080100200400F
:1019D0001802004080B500F09DFA134800681349D2
:1019E000096807221140C84080BC02BC8E4671467F
:1019F00072467346F4468EF30088744780B500F053
:101A000089FA0948006809490968702211400909E2
:101A1000C84080BC02BC8E46714672467346F4468E
:101A20008EF300887447C04608000020340200404E
:101A300087B000200690274800902748006805904E
:101A400005A880780521084203D0FFE70020069012
:101A500037E005A880780007002803D5FFE71F4876
:101A6000049002E01D480490FFE705A880788007F5
:101A7000002803D5FFE70498069021E005984CF272
:101A800000010840800B69460143087801900598E1
:101A900013490840801C0390059843F600610840F4
:101AA000400A401C02900498800803994843400073
:101AB0000299019A4A43B0FBF2F080000690FFE7DA
:101AC000FFE7069807B0714672467346F4468EF3F8
:101AD000008874470102020440020040001BB70066
:101AE000FF01000080B586B0174800680321084256
:101AF00027D0FFE7154800F03BFD1549096800298C
:101B0000059010D0FFE7144800F032FDD149049051
:101B100008460391FEF78CFB039902900846029950
:101B200000F006FD05E00B48DE4900F021FD0190C4
:101B3000FFE70A4800F01CFD034903220A600090F9
:101B4000FFE706B080BDC04604200340F42F00002C
:101B500000050020F7310000E7310000E53100000A
:101B600080B51C48006801218904884231D0FFE714
:101B700000F018F91848112101601848184901604F
:101B8000184800210160184801210160FFE716484C
:101B90000068002801D0FFE7F9E714480068401CFE
:101BA000002814D1FFE701208104104A11600D497B
:101BB00021220A600C490860FFE70B4800680028F2
:101BC00001D0FFE7F9E70A4801210160FFE7FFE7DD
:101BD000FEE780BD28F0024000C0004004C0004085
:101BE000000820000CC0004010C0004008C00040A9
:101BF00008000040B0B587B013460C460546069075
:101C00000591049200200390029301940095FFE750
:101C100003980F2819D8FFE70598039901228A40F5
:101C200010420DD0FFE7069800680399490003228F
:101C30008A409043049A8A40104306990860FFE75F
:101C4000FFE70398401C0390E2E707B0B0BD000037
:101C5000FFE7AE48006844F20001084204D1FFE704
:101C6000AB480068C0B27047F3E7C046B0B589B072
:101C700013460C46054606900591049206A8007886
:101C8000400600280293019400950DD5FFE706A8B1
:101C900000784007002803D5FFE70498039002E08E
:101CA00005980390FFE712E006A800784007002897
:101CB00006D5FFE7EFF3898007900798039005E0CA
:101CC000EFF38880089008980390FFE7FFE7FFE7AD
:101CD0000398006801210843002801D0FFE7F7E7D7
:101CE000069809B0B0BD000081B014480021016021
:101CF000134801601348016001200004124A10607B
:101D00001248016012480160124801601248022125
:101D100001600B200090FFE7009804280CDBFFE730
:101D20000098012181400D4802680A430260FFE7E4
:101D30000098401E0090EFE701B0704700F00240AD
:101D400004F0024008F002400CF0024010F00240A3
:101D500014F0024018F0024020F0024024F002404B
:101D6000B0B586B013460C46054605900491039223
:101D7000002002930194009506B0B0BD11480021E7
:101D800001607047FFE70F4859210160162101608B
:101D900088210160FFE70B4800680028F3D0FFE7C7
:101DA0007047C046FFE707485921016016210160CE
:101DB00088210160FFE7034800680028F3D0FFE7AF
:101DC0007047C0460001004080B500F049F900208E
:101DD00080BC02BC8E46714672467346F4468EF352
:101DE0000088744780B500F071F9002080BC02BC07
:101DF0008E46714672467346F4468EF300887447E9
:101E000010B5FFB0FFB086B0114800F0B1FB264A14
:101E100004A940F200430390084602911946019339
:101E200001F03AF8C849029A00901046019A00F071
:101E3000A7F900207FB07FB006B010BC02BC8E4670
:101E4000714672467346F4468EF300887447C04666
:101E5000E1300000F000002080B584B0104800F0B0
:101E600087FBB849104A40F20013039008460291DC
:101E7000194601F011F80D4901900846029900F049
:101E800077FB00210090084604B080BC02BC8E465F
:101E9000714672467346F4468EF300887447C04616
:101EA000CB30000004050020180000201D31000088
:101EB00080B582B0014601900198009100F002F8CF
:101EC00002B080BD82B0014601900091FFE70F484B
:101ED00000680121C905084201D0FFE7F7E7019832
:101EE0000B49086001A800780A280DD1FFE7FFE739
:101EF000064800680121C905084201D0FFE7F7E75D
:101F000003480D210160FFE702B070471800075039
:101F10000000075080B53DF0A3F8074908603DF088
:101F20007FF8064908600868054940180549B0FB74
:101F3000F1F00549086080BD040000200800002081
:101F400020A1070040420F000000002080B5054896
:101F50000549086000F00AF8FFF7C6FEFFF700FE2B
:101F600080BDC0460000000008ED00E0B0B51C4890
:101F7000002101603F2212031A4B1A601A4A1B4CBF
:101F80001460042404601A4C1C601A4C146005246C
:101F90000460194D1D60194D156006250560184D2A
:101FA0001D60184D1560072505602007186016484C
:101FB0001060164801220260154803680824A343F4
:101FC00003601448144B03605004144A1060144812
:101FD000102202601348016013480160B0BDC04682
:101FE000D8ED00E0DCED00E0E0ED00E0E3FF030011
:101FF00000000410E1FF0710007E8000E37F8000F6
:1020000000800030E17F0130E1FFFF5FD0ED00E0B4
:1020100010ED00E00CED00E00000FA0580E300E0C8
:1020200084E300E088E300E08CE300E082B0014656
:1020300001900198002800910CDBFFE701981F2117
:1020400002460A4001219140C008034A1040034A59
:102050008150FFE702B07047FCFFFF1F00E100E086
:1020600080B586B035480021016068460322426091
:1020700001607A4805900491049A049BFFF7CEF919
:10208000774A05980499049BFFF758FA2C4A05985B
:102090000499FFF728FA2C480390FEF7C9F869461F
:1020A0000860284B05980499039AFFF7E5F906485C
:1020B00000F05EFA05220599029008460499FFF7A0
:1020C00071FA06B080BDC046C62F000080B588B04A
:1020D0001A48012101606846032242600022026022
:1020E0005E48079006911146069B05921A46059B8D
:1020F000FFF794F95A4A07980599059BFFF71EFACE
:102100000F4A07980599FFF7EEF90E480490FEF77D
:102110008FF8694608600C4B07980599049AFFF7F9
:10212000ABF90A4800F024FA052207990390084603
:102130000599FFF737FA08B080BDC04600050020BA
:10214000C000002004050020F0000020DD2F00006A
:1021500080B582B0014601900091FFF779FD02B091
:1021600080BD80B584B00A4603460390029103986F
:1021700001920093FFF79CFE039804B080BD00001D
:10218000B0B58EB013460C4605460D900C910B92DF
:1021900000200A900D98079306940595FEF748F8DD
:1021A00009900998C10F411801229143401A002853
:1021B00001D0FFE72DE000200890FFE70D98089977
:1021C000405C0021002804910DD0FFE70A980B998C
:1021D0000122002388420393029201DB03980290BC
:1021E00002980490FFE70498C007002811D0FFE789
:1021F0000D98089940180C990A9A531C0A938A184A
:102200000549FEF71DF80190FFE70898801C08902B
:10221000D4E70EB0B0BDC0460E32000080B594B019
:102220004720FFF703FF0D480168032211430160B7
:1022300040F20010139004A800210390FFF7EDF97D
:102240001399CA17520F8918CA100549039B0290A7
:102250001846FFF7C7F9019014B080BD0020034075
:10226000D0000020034804490160044803210160B4
:102270007047C04624000750660000300C0007502D
:1022800080B588B03B483C49016001680968069107
:10229000069981F3888800684068059005980121B7
:1022A0008843059005A80078C00700282AD1FFE7D9
:1022B0000598000F012825D1FFE7304800F058F9B4
:1022C0000599002204901046F0B444464D46564607
:1022D0005F46F0B4012291430A460B460C460D4678
:1022E0000E460F46884689468A468B468C4681F3C1
:1022F00000888C47F0BCA046A946B246BB46F0BC5D
:10230000039034E01E4800F033F91E49029008465D
:1023100000F02EF91C490791079981F388881B4921
:102320001B4A0A601B49059105990022019010463D
:10233000F0B444464D4656465F46F0B40122914300
:102340000A460B460C460D460E460F468846894601
:102350008A468B468C4681F300888C47F0BCA046A9
:10236000A946B246BB46F0BC0090FFE7FEE708B0C6
:1023700080BDC04608ED02E000000410A531000059
:102380002F310000C2310000008200300080003098
:10239000FFE7FEE701800030B0B582B02248234954
:1023A0000160FFE7224800680421084201D1FFE7ED
:1023B000F8E7204801680F22914301221143016090
:1023C0001D48016807239943022319430160032034
:1023D00000061A4908601A4B1C6841F200052C439C
:1023E0001C60184B1C68184D2C431C600B68034381
:1023F0000B601648164901601648174901601748D6
:102400004021016016480168FF231B0499433323D0
:102410005B04194301601348002101911146019AA0
:10242000FFF7E8FB02B0B0BD400200400E04080018
:102430005002004020020040100200401402004000
:1024400004020040080200400400010004000020D3
:102450000020A107080000200090D0030000002009
:102460003C0000404040005080B588B0144800F067
:102470007FF814490790084600F07AF81249069050
:10248000084600F075F811490590084600F070F80C
:102490000F490490084600F06BF80E490390084677
:1024A00000F066F80C490290084600F061F80B490C
:1024B0000190084600F05CF8009008B080BDC0466E
:1024C000E53100002B300000533000007B3000006D
:1024D000F5300000A3300000053000008B2F000015
:1024E00080B584B0002003900F4800F041F80290BE
:1024F000FFF748FCFFF750FFFFF7B4FE0B4800F072
:1025000037F80190FFF7B0FFFFF788FEFFF736FCC2
:10251000FFF7B6FEFFE730BFFFE701200028FAD142
:10252000FFE7039804B080BD4E310000702F00001B
:1025300080B586B00A4603460590049100200390BA
:1025400002920193FFE70398049988420CDAFFE7AF
:1025500005980399415C054800F00AF80090FFE7F0
:102560000398401C0390EEE706B080BD09320000DE
:102570000FB410B503A9044B044A029800F0F0F818
:1025800010BC08BC04B01847632100006C00002098
:102590002021020C01D010211046020A01D0104661
:1025A0000839020901D01046091F820801D01046DF
:1025B000891E420801D0881E7047081A704702E041
:1025C00008C8121F08C1002AFAD1704770470020BE
:1025D00001E001C1121F002AFBD17047F0B51FB402
:1025E00086B00998089A030D0021024314D051487F
:1025F000514A1818504305141198012810981AD000
:10260000281A401C00264D4F4D4900960191049018
:10261000002812DA444211E01198012449A301284C
:1026200001D11098C1430698119A84600360C2607A
:1026300041600BB0F0BD4042E4E7044621050020B4
:102640003F4A001C51410391029012E0E00707D07D
:1026500032463B4601990098FEF7B8FA0191009086
:1026600032463B4610461946FEF7B0FA06460F467C
:102670006410002CEAD10498039B0028029A09995F
:10268000089806DAFEF7A2FA019B009AFEF79EFA76
:1026900005E0FEF703FB019B009AFEF7FFFA0446F4
:1026A0000E460022284BFEF791FB03D80020C043C2
:1026B000014607E00022254B20463146FEF7D4F9BB
:1026C000FEF764FB102409E0002C0ADB0A22002339
:1026D000FDF7EAFD079B30321A55641E02460A4395
:1026E000F2D11122641C079B121B1C19119B012B98
:1026F00003D0012308430ED10AE0084304D011207F
:1027000010900020119077E71098151A6D1E0BE0BD
:102710001098824202DD00236D1C03E0824201DA40
:1027200000236D1E002BEED0069811998260C160C7
:1027300030C07EE701FCFFFF104D00000000144098
:102740000000F03F300000000000F0430000E03FD8
:1027500030380A2801D2012070470020704700005D
:10276000FFB597B00646002518E2252877D100244A
:102770002746FD49049400E00443761C327801208A
:10278000203A90400842F7D130782A280ED0022211
:10279000307801463039092916D804990A2359435B
:1027A000303940181443761C0490F1E7189802C899
:1027B00004911890002904DA0120400304434842A0
:1027C000049002200443761C30782E2814D1042073
:1027D00004437078761C2A2809D11898761C80C882
:1027E000189009E00A214F43303FC719761C307812
:1027F000014630390929F5D930786C2810D006DC2B
:102800004C281AD068280ED06A2817D104E0742802
:1028100013D07A2812D110E00120400504430CE0C7
:102820000121090501E0032109050C43717881426A
:1028300003D1012000052418761C761C30781190F5
:1028400066280BD013DC58287DD009DC00287BD00B
:102850004528F6D04628F4D047281AD1A5E118E03B
:10286000632835D0642870D0652812D19DE1702886
:102870006CD008DC6728F1D069287BD06E280DD099
:102880006F2806D1BAE073282ED0752871D0782829
:1028900059D01A9A199990476D1C7EE16002400F39
:1028A000022809D003280DD00428189801680DD0FB
:1028B0000D60001D189070E11898EA1701680D600E
:1028C0004A60F6E7189801680D80F2E70D70F0E7AE
:1028D00018986A4601781172001D189000205072F5
:1028E00002A80090012005E0189802C81890002066
:1028F0000091C04361070DD5002101E00199491CF9
:102900000191B94212DA8142F8DB009A515C002948
:10291000F4D10BE0002101E00199491C01918142B1
:10292000FADB019A0099895C0029F5D10199049894
:102930001A9B471A21463846199A00F097FA0199CE
:10294000401945180BE04FE02CE113E04EE00098F1
:1029500000990078491C00911A9A1999904701989A
:10296000401E0190401CF2D1214638461A9B199A0C
:1029700010E137E00A200021009001916002410F30
:10298000022907D0189A01CA1892C217944603293F
:1029900008D00AE01898C01DC108C90005C91891DF
:1029A000944607E000B2C2179446042902D140B20F
:1029B000C1178C4600226146944506DA0A4600217A
:1029C000404291418C462D2102E0210504D52B2166
:1029D0006A461173012103E0E10701D02021F7E7E6
:1029E000029155E00A200AE0102008E01020009033
:1029F0000021042004430191082703E0082000215E
:102A0000019100906002410F022907D0189A01CA73
:102A1000189200229446032908D008E01898C01D97
:102A2000C108C90005C91891944603E080B2042981
:102A300000D1C0B200210291210729D51199702936
:102A400006D0009A1021019B4A401A4305D00EE09F
:102A500040216A461173012108E06146014306D016
:102A600030216A4611731199517302210291009A23
:102A70000821019B4A401A430AD16146014301D112
:102A8000610705D530216A46117301217F1E02912D
:102A90001199582904D035A10E910DA90D910DE081
:102AA00037A1F9E76146019B009AFDF7FDFB0E9BFC
:102AB0008C469B5C0D9A521E0D9213706146014329
:102AC000F0D10D9805A9081A20300190600703D5B0
:102AD00001200004844300E001270198874201DDC2
:102AE000381A00E000200199009041180298091856
:102AF0000498401A0490E00306D421461A9B199AC0
:102B0000049800F0B3F94519002706E003A81A9AC3
:102B1000C05D199990476D1C7F1C02988742F5DBB8
:102B2000E0030CD521461A9B199A049800F09EF9EF
:102B3000451904E01A9A3020199990476D1C0099A4
:102B4000481E00900029F5DC08E00D980D990078EA
:102B5000491C0D911A9A199990476D1C0199481EAC
:102B600001900029F1DC63E10928010030313233A2
:102B700034353637383961626364656600000000B9
:102B800030313233343536373839414243444546A3
:102B90000000000000F05AF94519761C3078002832
:102BA00000D0E2E528461BB0F0BD600700D4062740
:102BB0001898C01DC108C90048680A680831C30FC9
:102BC000DB071891190001D09CA108E0210501D56F
:102BD0009BA104E0E10701D09AA100E09AA1430083
:102BE00011985B08109165280CD006DC452809D0A7
:102BF00046281DD0472841D141E0662818D06728D3
:102C00003CD13CE00021112F01DB112000E0781CB9
:102C10000191009008A911A8FFF7E0FC1399059114
:102C20000021119A15927F1C12980197009150E093
:102C30000120C00703900120019008A9009711A866
:102C4000FFF7CCFC139A149905920022119B009275
:102C500012981593059A0192002901D0104602E0BE
:102C6000791C40180190381A01D5019804E04042BF
:102C7000401E0090781C0190C01B029043E0012F81
:102C800000DA01270021112F01DD112000E0384674
:102C90000191009008A911A8FFF7A0FC13990591D4
:102CA000119A0021129815920091019721070CD4D6
:102CB0000599B94201DB019900E00191012904DD88
:102CC000159A491E515C302906D0B84201DA011D1F
:102CD00005DA0121029115E00199491EEDE700286E
:102CE00005DC0099411800910199091A03E0019A45
:102CF000411C914200DD01910099401A401C029054
:102D00000120C0070390200706D402990198814250
:102D100002DB0020C043029000206946C87707AF5D
:102D2000012103980337C907884224D0022011905B
:102D30002B201290039800280CDA404203902D209B
:102D4000129007E00A210398FDF798FA30317F1EB0
:102D5000039039701199481E11900029F2DC0398F4
:102D60000028EFD1791E1298087030782021084091
:102D70004530BF1E387006A8C01BC01D03901098B8
:102D80000078002800D00120019941180298C0174E
:102D90000918039809180498401A401E0490E0038B
:102DA00006D421461A9B199A049800F05FF8451939
:102DB00010980078002803D01A9A199990476D1C32
:102DC000E00324D521461A9B199A049800F04EF886
:102DD00045191CE00098002807DB009905988842F7
:102DE00003DD1598405C199901E0199930201A9A71
:102DF000904700986D1C401C00900298401E029065
:102E0000002804D11A9A2E20199990476D1C019917
:102E1000481E01900029DDDC05E038781A9A7F1CF5
:102E2000199990476D1C0399481E03900029F4DC02
:102E300021461A9B199A0498ACE600002D00000068
:102E40002B0000002000000000000000F8B5044640
:102E500000251E461746880404D405E03946202084
:102E6000B0476D1C641EF9D52846F8BDFFB5044671
:102E7000002581B01E46C80301D5302700E0202779
:102E8000880404D505E038460399B0476D1C641EDC
:102E9000F9D5284605B0F0BDF8B517460D460446ED
:102EA0000646012912DD3846FFF752F9411C0BD0C6
:102EB000C0B22070641C0A2802D06D1E012DF2DC05
:102EC000002020703046F8BDB442F9D10020F8BD92
:102ED000DDDDDDDDDCBBBBDDDDDDDDDDDDDDDDDD67
:102EE00098888888888888887777777777888888A7
:102EF000855555566666666666666666666888883F
:102F00008333333222222222222222222228888D37
:102F10000000000004000000080000000C00000099
:102F20000000000004000000080000001000000085
:102F30000000000004000000080000000C00000079
:102F40000000000004000000080000001000000065
:102F5000001BB700008000000000000010270000E8
:102F600000000000006CDC0200000000001BB70045
:102F70000A446562756720706F727420696E6974A7
:102F800069616C697A6564210A0A0050757368206A
:102F9000627574746F6E2053573220746F206361B2
:102FA0006C6C20746865206D656E75652062792093
:102FB000746865204750494F20696E746572727558
:102FC0007074210A0A004145532064656372797068
:102FD0007420737461727465642E0A0A004145534B
:102FE00020656E63727970742073746172746564A5
:102FF0002E0A0A0041455320776F726B20646F6E72
:10300000652E0A0A00202020202020202020204693
:10301000204C2045204E205320422055205220474E
:103020002020202020202020200A00205F5F202058
:103030002020205F5F5F5F5F5F2020205F5F5F5F1A
:103040005F5F20202020205F5F5F5F5F5F20202088
:10305000200A002F5C205C2020202F5C5F5F202056
:103060005F5C202F5C20205F5F5F5C2020202F5C56
:1030700020205F5F5F5C2020200A005C205C205CD9
:1030800020205C2F5F2F5C205C2F205C205C5F5F2A
:103090005F20205C20205C205C205C5F5F5F5F2005
:1030A000200A0020205C2F5F2F20202020205C2F72
:1030B0005F2F2020205C2F5F5F5F5F5F2F2020202D
:1030C0005C2F5F5F5F5F5F2F200A00456E74657243
:1030D000205365637265742056616C75653A200AE9
:1030E00000456E7465722043697068657274657816
:1030F000743A200A00205C205C5F5C202020205C69
:10310000205C5F5C20205C2F5C5F5F5F5F5F5C200A
:10311000205C205C5F5F5F5F5F5C200A005365633B
:103120007265742056616C75653A2573200A004EED
:103130006F20636F646520696E206E6F6E2D7365FE
:103140006375726520726567696F6E210A00536549
:103150006375726520636F64652069732072756E94
:103160006E696E672E2E2E546869732063616E6ED1
:103170006F74206265207365656E2C206173207406
:10318000686520646562756720706F72742069736A
:103190006E277420696E697469616C7A6564207940
:1031A0006574210A0045786563757465206E6F6EDD
:1031B0002D73656375726520636F6465202E2E2EF6
:1031C0000A004350552077696C6C2068616C746507
:1031D00064206174206E6F6E2D7365637572652057
:1031E00073746174650A0043697068657220766162
:1031F0006C7565203D2000536563726574207661AF
:103200006C7565203D20257300253032780025320D
:1032100068687800383200000000002018000000C4
:10322000BE2500005032000018000020F00D000004
:10323000CE2500000000000030000000006CDC0221
:10324000006CDC02811A8000751B80000000000009
:020000040003F7
:10F000007FE97FE9C2F7E0BE7FE97FE9C2F7EABEA8
:10F010007FE97FE9C2F7F4BE7FE97FE9C2F71CBF51
:10F020007FE97FE9C2F710BB7FE97FE9C2F7D2BB76
:10F030007FE97FE9C2F7DEBB7FE97FE9C2F7F8BB72
:10F040007FE97FE9C2F712BC7FE97FE9C2F748BCDC
:10F050007FE97FE9C2F7BEBC7FE97FE9C2F7CEBC9A
:10F060007FE97FE9C2F7E4BC000000000000000077
:10F070000000000000000000000000000000000090
:04000005000001D91D
:00000001FF
